:020000040000FA
:060000000A128A11FC2F18
:100D7A008630F4007408F500F001F00A75300A12A2
:100D8A008A11CA260A128A110800F200F301DE2E1D
:100D9A00831203130C1ED22ED32ECD2E7308720784
:100DAA00F10071088400000899000130F10071080F
:100DBA00F30770087302031CE32EE42ECD2E0800FD
:100DCA00F8008730F7007708F9007808F700770805
:100DDA00FA007408F7007708FB007508F70077082F
:100DEA00FC007608F7007708FD000530F700770861
:100DFA00F00079300A128A11CA260A128A110800EA
:100E0A00F7007708F6007608F9007408F600760805
:100E1A00FA0075080319122F132F182F8030F600C5
:100E2A007608F8001C2F8130F6007608F8000330A7
:100E3A00F6007608F00078300A128A11CA260A12D9
:100E4A008A1108003F30831603138600FF3085009D
:100E5A00831603178801831603139816181583122D
:100E6A000313981718168316031787111930831658
:100E7A00031399009A0183160317890189148316AB
:100E8A0003139F171F129F12831203131F141F1598
:100E9A009F111F129F160A128A11BD260A128A1161
:100EAA000A3083120313A5000030A6005F30A000A9
:100EBA002008F400F501F50A25080A128A11052707
:100ECA000A128A11013083120313A5070318A60A0E
:100EDA000030A607003026027F3003192502031CC2
:100EEA00772F782F5B2F1E30A3000030A400230831
:100EFA00A0002008F400F501F50A0A300A128A1146
:100F0A0005270A128A11013083120313A307031853
:100F1A00A40A0030A4070030240260300319230217
:100F2A00031C982F992F7C2F9F14A32F1E08A20011
:100F3A00831603131E0883120313A1009F18A62FFA
:100F4A00A72F9B2FC73083120313A000AC2FA00B2F
:100F5A00AB2FAF2F83120313210E0F39A100220EDC
:100F6A00F039A104220E0F39A2007F30250626048B
:100F7A00031DC02FC12FC52F0B30A5000030A600BE
:100F8A001E30A0002008F400F501F50AF601F60A61
:100F9A0025080A128A11E5260A128A1183120313F6
:100FAA0021085E3CA0002008F400F501F50A250896
:100FBA000A128A1105270A128A115F308312031353
:100FCA00A0002008F400F501F50A25080A128A1182
:100FDA0005270A128A11013083120313A507031881
:100FEA00A60A0030A607992F0A128A11002883013F
:060FFA000A128A11272FE4
:04400E00D4E0FFFFFC
:00000001FF
