:020000040000FA
:060000000A128A11FC2F18
:100CB2008630F4007408F500F001F00A75300A126B
:100CC2008A1166260A128A110800F200F3017A2EAE
:100CD200831203130C1E6E2E6F2E692E7308720779
:100CE200F10071088400000899000130F1007108D8
:100CF200F30770087302031C7F2E802E692E0800F2
:100D0200F8008730F7007708F9007808F7007708CD
:100D1200FA007408F7007708FB007508F7007708F7
:100D2200FC007608F7007708FD000530F700770829
:100D3200F00079300A128A1166260A128A11080016
:100D4200F7007708F6007608F9007408F6007608CE
:100D5200FA0075080319AE2EAF2EB42E8030F600BD
:100D62007608F800B82E8130F6007608F8000330D5
:100D7200F6007608F00078300A128A1166260A1206
:100D82008A110800F601F11FC72EC82ECF2EF009D6
:100D9200F109F00A0319F10AF601F60AF31FD22E3D
:100DA200D32EDC2EF209F309F20A0319F30A0130F9
:100DB200F4007408F606F701F801700871040319CB
:100DC200E32EE42E1B2FF501F50AF22E013003105B
:100DD200F00DF10DFF3E031DE82E0130F400740802
:100DE200F507F11FF52EF62EE72E01300310F70D51
:100DF200F80DFF3E031DF72E71087302031D032F2A
:100E020070087202031C062F072F0E2F7008F202C1
:100E12007108031CF303F302771401300310F10C81
:100E2200F00CFF3E031D0F2F0130F502031D1A2F98
:100E32001B2FF62E760803191F2F202F252FF709B7
:100E4200F809F70A0319F80A7808F1007708F000A0
:100E520008008316031386130613831603178801EB
:100E620089018914831603139F171F129F1283127D
:100E720003131F141F159F111F129F1683160313AE
:100E8200981618158312031398171816831603174A
:100E9200871119308316031399009A010A308312BD
:100EA2000313A0002008A5005E30A0002008F40073
:100EB200F501F50A25080A128A11A1260A128A11D9
:100EC200013083120313A0002008A5077F302502FA
:100ED200031C6C2F6D2F552F1E30A0002008A4007C
:100EE2002408A0002008F400F501F50A0A300A12CD
:100EF2008A11A1260A128A11013083120313A0005B
:100F02002008A4075F302402031C882F892F712F29
:100F12000A128A1159260A128A11831203139F1484
:100F22009F18942F952F912F831603131E08831257
:100F32000313A0002008A300C73083120313A000EC
:100F4200A22FA00BA12FA52F1030F0000030F1002E
:100F5200831203132308A000A1012008F200210834
:100F6200F3000A128A11C3260A128A117008831228
:100F72000313A2002208A3007F302506031DC22FFF
:100F8200C32FC72F0B30A0002008A5001E30A000E1
:100F92002008F400F501F50AF601F60A25080A12FE
:100FA2008A1181260A128A118312031323085E3CD6
:100FB200A0002008F400F501F50A25080A128A119A
:100FC200A1260A128A115E3083120313A0002008A0
:100FD200F400F501F50A25080A128A11A1260A125F
:100FE2008A11013083120313A0002008A5078E2F57
:0E0FF2000A128A11002883010A128A112A2F7E
:04400E00D4E0FFFFFC
:00000001FF
